:100000000C9462000C948A000C948A000C948A0070
:100010000C948A000C948A000C948A000C948A0038
:100020000C948A000C948A000C948A000C948A0028
:100030000C948A000C948A000C948A000C948A0018
:100040000C94C0020C948A000C9430030C940A03A4
:100050000C948A000C948A000C948A000C948A00F8
:100060000C948A000C948A000000000024002700F1
:100070002A0000000000250028002B0000000000DE
:1000800023002600290004040404040404040202DA
:100090000202020203030303030301020408102007
:1000A0004080010204081020010204081020000012
:1000B0000008000201000003040700000000000027
:1000C0000000BD0511241FBECFEFD8E0DEBFCDBFBD
:1000D00012E0A0E0B1E0E8E2FCE002C005900D9281
:1000E000A637B107D9F723E0A6E7B2E001C01D9219
:1000F000A232B207E1F710E0C2E6D0E004C02197D7
:10010000FE010E940C06C136D107C9F70E946203A6
:100110000C9412060C940000833081F028F4813096
:1001200099F08230A9F008958730A9F08830C9F09D
:100130008430B1F4809180008F7D03C08091800075
:100140008F7780938000089584B58F7784BD08955C
:1001500084B58F7DFBCF8091B0008F778093B00006
:1001600008958091B0008F7DF9CFCF93DF93282F32
:1001700030E0F901E255FF4F8491F901E656FF4F57
:10018000D491F901EA57FF4FC491CC23A1F081111A
:100190000E948C00EC2FF0E0EE0FFF1FE458FF4FA1
:1001A000A591B491EC91ED2381E090E009F480E019
:1001B000DF91CF91089580E090E0FACF1F93CF9325
:1001C000DF93282F30E0F901E255FF4F8491F901C8
:1001D000E656FF4FD491F901EA57FF4FC491CC2363
:1001E000A9F0162F81110E948C00EC2FF0E0EE0F89
:1001F000FF1FEE58FF4FA591B4918FB7F894EC9183
:10020000111108C0D095DE23DC938FBFDF91CF9111
:100210001F910895DE2BF8CFCF93DF9390E0FC0180
:10022000E656FF4F24918A579F4FFC018491882303
:10023000D1F090E0880F991FFC01E859FF4FA5917C
:10024000B491FC01EE58FF4FC591D491623071F426
:100250009FB7F8943C91822F809583238C93E881FB
:100260002E2B28839FBFDF91CF9108958FB7F894ED
:10027000EC912E2B2C938FBFF6CF3FB7F894809143
:10028000810290918202A0918302B091840226B5EE
:10029000A89B05C02F3F19F00196A11DB11D3FBFBE
:1002A000BA2FA92F982F8827BC01CD01620F711D8D
:1002B000811D911D42E0660F771F881F991F4A9587
:1002C000D1F708958F929F92AF92BF92CF92DF9213
:1002D000EF92FF920E943D014B015C0188EEC82E17
:1002E00083E0D82EE12CF12C0E943D016819790998
:1002F0008A099B09683E734081059105A8F321E0B6
:10030000C21AD108E108F10888EE880E83E0981E31
:10031000A11CB11CC114D104E104F10429F7FF9020
:10032000EF90DF90CF90BF90AF909F908F90089507
:10033000AF92BF92CF92DF92EF92FF920F931F93F3
:10034000CF93DF936C017B018B01040F151FEB0131
:100350005E01AE18BF08C017D10759F06991D601E8
:10036000ED91FC910190F081E02DC6010995892B5A
:1003700079F7C501DF91CF911F910F91FF90EF9019
:10038000DF90CF90BF90AF900895FC01538D448DC6
:10039000252F30E0842F90E0821B930B541710F030
:1003A000CF96089501970895FC01918D828D98173D
:1003B00061F0A28DAE0FBF2FB11D5D968C91928D15
:1003C0009F5F9F73928F90E008958FEF9FEF089546
:1003D000FC01918D828D981731F0828DE80FF11D0F
:1003E000858D90E008958FEF9FEF0895FC01918D2A
:1003F000228D892F90E0805C9F4F821B91098F7323
:100400009927089585E892E00E94F60121E0892B62
:1004100009F420E0822F089580E090E0892B29F0F4
:100420000E94020281110C9400000895FC01A48D29
:10043000A80FB92FB11DA35ABF4F2C91848D90E006
:1004400001968F739927848FA689B7892C93A089E9
:10045000B1898C91837080648C93938D848D981373
:1004600006C00288F389E02D80818F7D8083089506
:10047000EF92FF920F931F93CF93DF93EC0181E0F4
:10048000888F9B8D8C8D98131AC0E889F98980819B
:1004900085FF15C09FB7F894EE89FF896083E889CE
:1004A000F98980818370806480839FBF81E090E0C0
:1004B000DF91CF911F910F91FF90EF900895F62E4D
:1004C0000B8D10E00F5F1F4F0F731127E02E8C8DE7
:1004D0008E110CC00FB607FCFACFE889F98980812C
:1004E00085FFF5CFCE010E941602F1CFEB8DEC0F08
:1004F000FD2FF11DE35AFF4FF0829FB7F8940B8F49
:10050000EA89FB8980818062CFCFCF93DF93EC01B2
:10051000888D8823B9F0AA89BB89E889F9898C91EB
:1005200085FD03C0808186FD0DC00FB607FCF7CFA7
:100530008C9185FFF2CF808185FFEDCFCE010E94A7
:100540001602E9CFDF91CF910895FC0101900020C0
:10055000E9F73197AF01481B590BBC0185E892E0E0
:100560000C949801CF93DF930E94A502EC0182E1E5
:1005700091E00E94A5028C0F9D1FDF91CF910895FD
:100580001F920F920FB60F9211242F933F938F93C8
:100590009F93AF93BF9380917D0290917E02A09133
:1005A0007F02B091800230917C0223E0230F2D372F
:1005B00058F50196A11DB11D20937C0280937D0208
:1005C00090937E02A0937F02B0938002809181027B
:1005D00090918202A0918302B09184020196A11DA4
:1005E000B11D8093810290938202A0938302B09305
:1005F0008402BF91AF919F918F913F912F910F9066
:100600000FBE0F901F90189526E8230F0296A11D8C
:10061000B11DD2CF1F920F920FB60F9211242F93BC
:100620003F934F935F936F937F938F939F93AF937A
:10063000BF93EF93FF9385E892E00E941602FF912B
:10064000EF91BF91AF919F918F917F916F915F914A
:100650004F913F912F910F900FBE0F901F901895C3
:100660001F920F920FB60F9211242F938F939F9387
:10067000EF93FF93E0919502F09196028081E091D3
:100680009B02F0919C0282FD1BC0908180919E0292
:100690008F5F8F7320919F02821741F0E0919E023D
:1006A000F0E0EB57FD4F958F80939E02FF91EF9105
:1006B0009F918F912F910F900FBE0F901F901895C3
:1006C0008081F4CFCF93DF93CDB7DEB7A1970FB67C
:1006D000F894DEBF0FBECDBF789484B5826084BD30
:1006E00084B5816084BD85B5826085BD85B5816036
:1006F00085BD80916E00816080936E0010928100B4
:10070000809181008260809381008091810081606E
:10071000809381008091800081608093800080912F
:10072000B10084608093B1008091B00081608093BB
:10073000B00080917A00846080937A0080917A0082
:10074000826080937A0080917A00816080937A0041
:1007500080917A00806880937A001092C10061E0F5
:1007600086E00E940C0162E082E00E940C0162E0DF
:1007700083E00E940C0162E084E00E940C0162E0D0
:1007800085E00E940C0161E089E00E940C0161E0BB
:100790008AE00E940C0161E08BE00E940C0161E0A4
:1007A0008CE00E940C01E0919502F091960282E0AB
:1007B0008083E0919102F09192021082E091930285
:1007C000F09194028FEC808310929D02E091990247
:1007D000F0919A0286E08083E0919702F09198026E
:1007E000808180618083E0919702F09198028081FE
:1007F00088608083E0919702F09198028081806800
:100800008083E0919702F091980280818F7D8083B0
:1008100085E191E00E94B2028DE291E00E94B20275
:1008200082E491E00E94B2023AE0832E912CA12C46
:10083000B12C86EEE82EF12C9AE0692E712C24E181
:10084000C22ED12C85E892E00E94F60118161906F6
:100850000CF052C085E892E00E94D40180937B02A4
:1008600090ED980F963008F011C1082E000C990BEE
:10087000C0978230910509F4C6C00CF099C000976A
:1008800009F4A9C0019709F4B3C08EE092E00E9478
:10089000A5022090770230907802032C000C4408C7
:1008A000550857FEDDC06DE285E892E00E943802EF
:1008B00022273327A901221933094409550919A20E
:1008C0008E010F5D1F4FCA01B901A50194010E945D
:1008D000EA05605DF80162938F012115310541053C
:1008E000510589F70115110519F0C8010E94A502EB
:1008F00082E191E00E94A50282E00E94B500892B6E
:1009000009F0CFC061E086E00E940C0160E086E063
:100910000E94DE0061E089E00E94DE0080917602A4
:10092000811107C08AE292E00E94B20281E08093C6
:10093000760283E00E94B500892B09F00FC161E0C7
:100940008CE00E94DE0088E492E00E94B2020E94E5
:10095000620184E00E94B500892B09F004C161E0C6
:100960008AE00E94DE0080E592E00E94B2020E94CE
:10097000620185E00E94B500892B09F0F9C061E0B1
:100980008BE00E94DE0082E692E00E94B2020E94AA
:1009900062010E94620180E090E0892B09F452CF4D
:1009A0000E940202882309F444CF0E94000041CF34
:1009B0008430910509F445C0ACF1059709F065CF85
:1009C000F0927A02E0927902709278026092770255
:1009D00085EF91E00AC010927A021092790210928B
:1009E00078021092770288E991E00E94B2024DCF1E
:1009F000F0927A02E0927902D0927802C092770265
:100A000081EB91E0F2CF84EB90E090937A028093B7
:100A10007902E2E3F0E0F0937802E093770282EC6F
:100A200091E0E3CF88E790E090937A028093790297
:100A3000EBE4F0E0F0937802E093770283ED91E04D
:100A4000D4CF80E590E090937A0280937902E4E637
:100A5000F0E0F0937802E093770284EE91E0C5CF66
:100A6000A201910119A28E010F5D1F4FCA01B901A8
:100A7000A50194010E94EA05605DF80162938F016F
:100A8000211531054105510589F72CCF8AE192E006
:100A90000E94A50260917B0285E892E00E943802E4
:100AA00027CF0091790210917A0261E086E00E94DE
:100AB0000C010115110559F460E086E00E94DE008A
:100AC00060E089E00E94DE001092760232CF0F3F94
:100AD000110511F461E0F1CFE4EBF0E08491833093
:100AE00019F140F48130B1F08230C9F000381105BD
:100AF0008CF7E2CF873011F1883041F18430B1F7C3
:100B00008091800080628093800010938B0000931E
:100B10008A00D6CF84B5806884BD07BDD1CF84B5A7
:100B2000806284BD08BDCCCF8091800080688093B6
:100B300080001093890000938800C2CF8091B0009C
:100B400080688093B0000093B300BACF8091B0006A
:100B500080628093B0000093B400B2CF60E08CE07C
:100B60000E94DE00F6CE60E08AE00E94DE0001CF47
:100B700060E08BE00E94DE000CCFE5E8F2E013823B
:100B8000128288EE93E0A0E0B0E084839583A68390
:100B9000B78384E091E09183808385EC90E0958732
:100BA000848784EC90E09787868780EC90E0918B37
:100BB000808B81EC90E0938B828B82EC90E0958B24
:100BC000848B86EC90E0978B868B118E128E138E21
:100BD000148E0895A1E21A2EAA1BBB1BFD010DC0A5
:100BE000AA1FBB1FEE1FFF1FA217B307E407F507DD
:100BF00020F0A21BB30BE40BF50B661F771F881FB9
:100C0000991F1A9469F760957095809590959B014E
:100C1000AC01BD01CF010895EE0FFF1F0590F491C7
:080C2000E02D0994F894FFCFC8
:100C28000000000038029801C5018502F601D401D0
:100C3800E8010D0A0056656869636C6520436F6EAC
:100C480074726F6C2053797374656D200020636F24
:100C58006E74726F6C206D6F746F7220676561724D
:100C68003A0030203D204E65757472616C2C20313D
:100C7800203D2031737420476561722C2032203D5D
:100C880020326E6420476561722C2033203D20336A
:100C9800726420476561722C2034203D20347468CA
:100CA80020476561722C2035203D2052657665729B
:100CB80073652047656172004E65757472616C20BA
:100CC80047656172202D204D6F746F72204F464624
:100CD80000317374204765617220456E67616765EE
:100CE8006400326E64204765617220456E676167F3
:100CF800656400337264204765617220456E6761E0
:100D080067656400347468204765617220456E67C2
:100D18006167656400526576657273652047656131
:100D28007220284C6F7720537065656429005370D2
:100D3800656564284B6D293A2000496E76616C69B7
:100D48006420696E7075743A20004272616B652088
:100D58004170706C696564202D204D6F746F72202E
:100D680053746F7070656400486F726E204F6E0028
:100D78004C65667420496E64696361746F72204FB4
:100D88006E00526967687420496E64696361746FA4
:060D980072204F6E000006
:00000001FF
